:020000040800F2
:10000000C80D0020DD0100084F360008912B0008C4
:100010004D360008E1070008994100080000000083
:10002000000000000000000000000000573700083A
:10003000E307000800000000553700088537000876
:10004000F7010008F7010008F7010008F7010008B0
:10005000F7010008F7010008F7010008F7010008A0
:10006000F7010008F7010008F7010008F701000890
:10007000F7010008F7010008F7010008F701000880
:10008000F7010008F7010008A1060008F7010008C1
:10009000F7010008F7010008F7010008F701000860
:1000A000F7010008F7010008F7010008F701000850
:1000B000F7010008F7010008F7010008F701000840
:1000C000F7010008F7010008F7010008F701000830
:1000D000F7010008F7010008F7010008F701000820
:1000E000F7010008F7010008F7010008F701000810
:1000F000B9380008F7010008F7010008F701000807
:10010000F7010008F7010008F7010008F7010008EF
:10011000F7010008F7010008A1380008AD38000811
:10012000F7010008F7010008F7010008F7010008CF
:10013000F7010008F7010008F7010008F7010008BF
:10014000F7010008F7010008F7010008F7010008AF
:10015000F7010008F7010008F7010008F70100089F
:10016000F7010008F7010008F7010008F70100088F
:10017000F7010008F7010008F7010008000000007F
:10018000F7010008F7010008213D0008F701000809
:10019000F7010008F7010008F7010008F70100085F
:1001A000F7010008F7010008F7010008F70100084F
:1001B000F7010008F7010008F7010008F70100083F
:1001C000F7010008F7010008DFF80CD000F056FA3C
:1001D00000480047B9410008C80D00200648804784
:1001E00006480047FEE7FEE7FEE7FEE7FEE7FEE71C
:1001F000FEE7FEE7FEE7FEE74D380008C90100080C
:100200002DE9F05F0546002092469B46884606464B
:10021000814640241BE0284641464746224600F0DE
:1002200077F953465A46C01A914110D311461846E1
:10023000224600F05EF92D1A67EB01084F46224670
:100240000120002100F055F917EB00094E41201E56
:10025000A4F10104DFDC484631462A464346BDE8A6
:10026000F09F2DE9FE4F804681EA0300C00F0C4647
:10027000009021F0004123F00045B8EB0200A941B5
:1002800005D24046214690461C460B46024623F0C6
:100290000040104347D0270DC7F30A00C3F30A51AB
:1002A0000290401A019040286BDAC3F3130040F427
:1002B000801B0098924620B10023D2EB030A63EB27
:1002C0000B0B01985946C0F14002504600F011F95D
:1002D00006460D4650465946019A00F029F910EBA2
:1002E00008006141002487EA115284EAE7731A4347
:1002F00040D0009A62B3019A012A4FEA075215DCF6
:10030000001B61EB02014FF0004202EA0752CDE907
:100310000042001C41F5801132462B4600F060F986
:1003200003B0BDE8F08F40462146F9E7001B61EBC2
:100330000201001C41F5801300185B412018A2F552
:10034000001747EB030140EAD570B6196D4111E083
:100350006D084FEA360645EAC0754FEA0752001BA2
:1003600061EB0201001C41F5801149084FEA3000A1
:100370000019514132462B4603B0BDE8F04F00F062
:1003800020B90098012240000023D0EB020263EB69
:10039000E073009821464FEAE074B8EB000061EB8F
:1003A0000401E9E783F000435BE781F0004158E78F
:1003B0002DE9FE4F81EA030404F0004421F00041DE
:1003C00000944FF0000B23F0004350EA01045ED08C
:1003D00052EA03045BD0C3F30A54C1F30A552C4418
:1003E000A4F2F3340194A0FB0254C1F3130141F4CD
:1003F0008011C3F3130343F4801301FB024400FB99
:10040000034E840A970A44EA815447EA8357A4FBBF
:10041000076802958D0A05FB07854FEA932C04FBBC
:100420000C542705029D4FEA065847EA1637B5EBEC
:1004300008056EEB070C870E920E47EA811742EA19
:100440008312A7FB0201B6EB0B0164EB00042B0D3A
:1004500043EA0C335E1844EB1C50DA465146E7FB86
:100460000201C5F313044FEA0B3343EA14534FEA76
:100470000432019C43EA0603A4F10C040294009C9C
:10048000CDE900B400F0ACF803B0BDE8F08F002077
:100490000146F9E700F0004230F000400AD0C10DFB
:1004A00001F56071C0F3160042EA0151C20840072D
:1004B0001143704700200146704701F0004330B4FB
:1004C00021F0004150EA010206D00A0DA2F5607247
:1004D000C1F31301002A02DC30BC00207047440F36
:1004E00044EAC104C100E01830BC00EBC25000F087
:1004F00031B8202A04DB203A00FA02F100207047CC
:100500009140C2F1200320FA03F319439040704751
:10051000202A04DB203A21FA02F00021704721FA58
:1005200002F3D040C2F120029140084319467047BF
:10053000202A06DBCB17203A41FA02F043EAE073A7
:1005400006E041FA02F3D040C2F120029140084394
:10055000194670470029A8BF7047401C490008BFD2
:1005600020F00100704710B4B0FA80FC00FA0CF0E3
:1005700050EA010404BF10BC704749B1CCF120041B
:1005800021FA04F411FA0CF118BF012121430843A8
:10059000A3EB0C01CB1D4FEA00614FEA102042BFD4
:1005A000002010BC704700EBC35010440029A4BFCA
:1005B00010BC7047401C490008BF20F0010010BC6F
:1005C000704710B5141E73F1000408DA401C41F1A5
:1005D000000192185B411A4301D120F0010010BDC7
:1005E0002DE9F04D92469B4611B1B1FA81F202E03D
:1005F000B0FA80F220329046FFF77BFF04460F46A8
:1006000040EA0A0041EA0B0153465A46084313D018
:10061000114653EA010019D0C8F140025046FFF7D5
:1006200077FF05460E46504659464246FFF761FFA2
:10063000084305D0012004E020463946BDE8F08D8E
:100640000020054346EAE0762C4337430A986305C9
:10065000E40AA0EB08000022FD0A44EA47540A30ED
:1006600002D500200146E9E7010510196941DDE9DD
:10067000084500196941BDE8F04DA2E7064C074D59
:1006800006E0E06840F0010394E807009847103462
:10069000AC42F6D3FFF79CFD886E0008A86E0008F8
:1006A000014800F05FB900007C04002049496FF068
:1006B000706210B5D1F8043323F44033C1F8043329
:1006C000D1F8043344682343C1F8043301684B680C
:1006D00023F480734B60016803694C6844EA032388
:1006E0004B6001684B6823F040734B60016884687D
:1006F0004B6823434B6001688B6823F400638B6075
:100700000168C4688B6823438B60816AD1420168A9
:100710008A6822F070628A6001680DD0836A8A68F4
:100720001A438A6001688A6822F040528A60016830
:10073000C36A8A681A4302E08A6822F040528A60DB
:1007400001688A6822F002028A60016882698B6807
:1007500043EA42028A60016A0029016811D01E4AF8
:100760004B6843F400634B6001684B6823F46043BB
:100770004B600168446A4B6802EB443213434B60A0
:1007800003E04A6822F400624A600168134BCA6AB7
:1007900022F47002CA620168848BCA6A03EB0453B4
:1007A0001A43CA6201688A6822F400728A6001688A
:1007B000026B8B6843EA42228A6001688A6822F4ED
:1007C00080628A60016840698A6842EA80208860A5
:1007D00010BD00000020014000E0FFFF0000F0FF1E
:1007E000FEE77047F7EE001A30EEE12AF0EE401A0D
:1007F00042EE011A81EEA00A70477047F8B5002555
:10080000009590F83C20012A18D0012280F83C2065
:100810000A6807234E4C0668092A1AD90A3A02EBDD
:100820004207F268BB409A43F2600E680268A64233
:1008300006D10B7AD66846EA036308E00220F8BDC9
:100840000A3E8B68D76806EB4606B3403B43D3604D
:100850000EE002EB42073269BB409A433261036803
:100860000E788A681F6906EB4606B2403A431A6161
:100870004A681F23072A13D20668521E02EB82071A
:10088000726BBB409A43726303680E790A88761EC6
:100890005F6B92B206EB8606B2403A435A6327E09A
:1008A00006680D2A12D2D21F02EB8207326BBB40C0
:1008B0009A43326302680E790B88F61F176B9BB25E
:1008C00006EB8606B3403B43136311E00D3A02EB9F
:1008D0008207F26ABB409A43F26202680E790B8883
:1008E0000D3ED76A9BB206EB8606B3403B43D3620C
:1008F000184A0368934208D10B68122B05D1D2F82D
:10090000043343F48003C2F80433036893421AD1DA
:100910000B68A34201D0112B15D1D2F8043343F454
:100920000003C2F804330968A1420CD10A490B4AFA
:100930000968B1FBF2F101EB8101490000E0491EB9
:1009400000910029FBD180F83C500020F8BD000048
:1009500012000010002001407800002040420F00EB
:100960007047704770B50446006801684268C1F37B
:100970004001C2F3401251B34AB3216CC90603D4FB
:10098000216C41F400712164816811F0405F17D13E
:10099000A169A9B9C16A11F4700F02D08168490533
:1009A0000ED4416821F020014160206C20F4807059
:1009B0002064206CC00403D4206C40F0010020644B
:1009C0002046FFF7CDFF21686FF012000860206815
:1009D00001684268C1F38001C2F3C01289B382B3D7
:1009E000216CC90603D4216C41F400512164816853
:1009F00011F4401F1ED1816B11F4401F02D0816899
:100A0000490517D44168490514D4816811F0405F45
:100A100010D1A16971B9416821F080014160206C59
:100A200020F480502064206CC00503D4206C40F07A
:100A3000010020642046FFF7E0FE21686FF00C0003
:100A4000086020680168436811F0010FC3F380114A
:100A50000ED069B10068C0070AD0206C40F4803025
:100A60002064204600F046F821686FF0010008601D
:100A7000206801684268C1F340110029C2F3806216
:100A80000DD0002A0BD0616C6FF0200541F00201FF
:100A9000616405602046FFF764FF2068056070BD53
:100AA00070B504004FF0000503D0206C002610B193
:100AB00007E0012070BD6664204684F83C6000F0C9
:100AC0001BF8206CC00610D4206C20F4885040F035
:100AD000020020642046FFF7E9FD6664206C20F0E8
:100AE000020040F00100206400E0012584F83C6031
:100AF000284670BD7047000000B5006887B00F49F8
:100B0000884219D10E48016841F480610160006893
:100B10000321002200F48060059008208DE8070082
:100B20000848694600F034F800221220114600F00F
:100B300037FB122000F028FB07B000BD0022014067
:100B4000443802400014024090F83510022903D0C6
:100B50008021416501207047052180F8351000682B
:100B6000016821F0010101600020704770B5044662
:100B700000F004F90546601C02D0044800780444E3
:100B800000F0FCF8401BA042FAD370BD6C000020BE
:100B90002DE9F84FDFF89CE100224FF001084FF0FB
:100BA000030B4FF00F0A00BF0B6808FA02F4234052
:100BB000A34271D14D68022D01D0122D0FD1D5085D
:100BC0000E69570700EB8505A9462D6AFF0E0AFA44
:100BD00007FCBE4025EA0C052E43C9F820600F79BA
:100BE000550006680BFA05FC07F0030726EA0C0619
:100BF000AF40374307604E68012E05D0022E03D068
:100C0000112E01D0122E0ED18668CF6826EA0C066E
:100C1000AF403743876046680F79A643C7F3001794
:100C2000974037434760C4688E6824EA0C04AE409E
:100C30002643C6604C68E40075D53F4C256845F4F2
:100C400080452560246822F00306950704F480445B
:100C500000943A4C2D0F2644D6F80848DFF8E0C03F
:100C60000AFA05F7604524EA070401D100272EE0BF
:100C7000344FB84201D1012729E0334FB84201D1A6
:100C8000022724E0314FB84201D103271FE0304F43
:100C9000B84202D104271AE045E02E4FB84201D1F4
:100CA000052714E02C4FB84201D106270FE02B4F47
:100CB000B84201D107270AE0294FB84201D10827DD
:100CC00005E0284FB84201D1092700E00A27AF40CC
:100CD00027437546C6F808784E68DEF80040F603EC
:100CE00024EA030400D51C43124E2C60361D4D68C7
:100CF0003468AD0324EA030400D51C430D4F34606F
:100D000008374D683C68ED0224EA030400D51C4313
:100D1000084D3C600C354E682C68B60224EA03048A
:100D200000D51C432C60521C102AFFF43DAFBDE8D7
:100D3000F88F0000003C0140443802400030014080
:100D4000000002400004024000080240000C024083
:100D5000001002400014024000180240001C024033
:100D6000002002400024024042694A40426170472C
:100D70000AB1816170470904FBE7000001488068FF
:100D8000704700006C00002030B590F84120202A08
:100D900024D190F84020012A20D0012380F840304F
:100DA000242280F84120202300240268156825F0C1
:100DB000010515600268156825F480551560026804
:100DC00015680D43156001680A6842F001020A6067
:100DD00080F8413080F84040002030BD022030BD16
:100DE00030B590F84120202A22D190F84020012AE5
:100DF0001ED0012380F84030242280F84120202496
:100E000000250268136823F0010313600268136869
:100E100023F4706343EA0121116001680A6842F01B
:100E200001020A6080F8414080F84050002030BD47
:100E3000022030BD70B5040004D094F841000025B4
:100E400010B106E0012070BD204684F8405000F04B
:100E500001F9242084F841002068016821F0010193
:100E60000160D4E9001020F070600861206881689A
:100E700021F400418160E06821680128A06806D063
:100E800040F404408860E068022803D006E040F4A3
:100E90000040F7E721684FF4006048602021206897
:100EA000114A4368134343602068C26822F4004239
:100EB000C26054F8106B0DCC104340EA0320F06080
:100EC00054F81C3CD4E900021043186054F81C0D7F
:100ED000026842F001020260656484F841102563F3
:100EE00084F84250002070BD008000022DE9FF4FC1
:100EF00083B0044690F841009A469346DDE9108796
:100F0000DDF84890202870D15FEA08006ED0002FED
:100F10006CD094F84000012867D0012084F840008C
:100F2000FFF72CFF0122064619230090D10320462B
:100F300001F0CCFE002854D10025C4F824802121E2
:100F400084F84110402084F8420065646785534668
:100F500065635A4604992046CDE9009601F068FE83
:100F600028B1606C84F8405004286CD039E0608D62
:100F7000FF274FF08078FF284FF0007A04D92785AB
:100F80003A464346009505E0608D5346208500951E
:100F900094F828202046049901F082FE3246494602
:100FA000204601F0E4FE18B1606C04284BD018E034
:100FB000606A411C6162216800788862608D401E11
:100FC0006085208D401E0004000C208521D1608D9D
:100FD000F8B100224B4680212046009601F076FEB3
:100FE00028B1032007B0BDE8F08F2EE02BE0608D24
:100FF000FF2804D927853A464346009505E0608DD1
:1010000053462085009594F828202046049901F045
:1010100047FE608D0028C1D132464946204601F086
:101020007EFE0028C0D120682021094AC1612068C5
:1010300043681340436084F8411084F84250002014
:1010400084F84050CEE70120CCE70220CAE7000038
:1010500000E800FE00B5006887B00D49884214D151
:1010600003201221012204238DE80700CDE90303A8
:1010700008486946FFF78CFD0748016841F4800184
:101080000160006800F48000059007B000BD00001A
:101090000058004000140240403802400248816875
:1010A00002781144816070476C000020032010B565
:1010B00000F096F8002000F005F800F023F800207A
:1010C00010BD000070B50D4D04464FF47A700C4A07
:1010D00029781268B0FBF1F0B2FBF0F000F07BFE73
:1010E00048B9102C07D200222146501E00F058F8B3
:1010F00000206C6070BD012070BD00006C000020FD
:10110000780000201F4808B5016841F08051016057
:10111000006800F0805000901A48001D016841F4FA
:1011200080410160006800F480400090032000F0DE
:1011300057F800226FF00B00114600F031F8002242
:101140006FF00A00114600F02BF800226FF0090042
:10115000114600F025F80022501F114600F020F83B
:101160000022101F114600F01BF80022901E1146AD
:1011700000F016F80022BDE80840501E114600F0AD
:101180000FB8000040380240410900F01F028900FA
:10119000012001F1E0219040C1F8000170470000FA
:1011A0000E4BF0B41B680D46C3F30223C3F10706D0
:1011B000042E00D90426191D072901D2002300E0BE
:1011C000DB1E012404FA06F19C40491E2940641EDE
:1011D000994014402143F0BC02F03ABA0CED00E013
:1011E000064900F0070210B54FF6FF040868044BEB
:1011F000204040EA02201843086010BD0CED00E0DA
:101200000000FA051848F8B5016841F08051016006
:101210000068164C00F080500090206840F4803048
:101220002060FFF7ABFD4FF47A76054605E000BF7E
:10123000FFF7A4FD401BB0420FD86068C003F7D58C
:10124000206840F400302060FFF798FD054606E076
:10125000FFF794FD401BB04201D90320F8BD606840
:101260008003F5D50020F8BD4038024000700040F2
:101270002DE9F84F04460078DFF824944FF000067B
:101280003746C0070ED0D9F8001021F40001C9F884
:101290000010D9F80010626B1143C9F80010606BA0
:1012A00000B90126FE4D2068843500030ED5E16BA0
:1012B000286820F4401008432860E06BB0F5801FD8
:1012C00001D010B102E0012600E0012720684FF4B0
:1012D000800BC0020CD5216C286820F44000084324
:1012E0002860206C584501D1012601E000B9012792
:1012F0002068C10100D50126800666D5E84838304F
:10130000016841F0805101600068DFF898A300F0A7
:1013100080500090DAF8001041F48071CAF8001093
:10132000FFF72CFD804605E0FFF728FDA0EB080045
:1013300064287DD8DAF80000C005F5D5DFF86083B1
:1013400008F16808D8F8000010F440702AD0218E07
:1013500001F44071814225D0D8F80010D8F800205F
:1013600021F4407142F48032C8F80020D8F80020FF
:1013700022F48032C8F80020C8F80010D8F8000025
:10138000C0070FD0FFF7FAFC824607E0FFF7F6FC34
:10139000A0EB0A0141F288308142CAD8D8F8000097
:1013A0008007F3D5206BC0F3012103297ED0D9F843
:1013B000001021F4F811C9F80010228ED8F800109E
:1013C000C2F30B021143C8F800102078C00607D5FD
:1013D000286820F0807028602868A16B0843286086
:1013E0002188AF488830490405D5626E016821F430
:1013F0004031114301602188090405D5A26E0168BE
:1014000021F44021114301602168C90305D5E26E32
:10141000016821F44011114301602168890305D559
:10142000226F016821F4400111430160217800E03E
:1014300018E1490605D5626C016821F003011143EA
:1014400001602178090605D5A26C016821F00C0124
:10145000114301602188C90505D5E26C016821F0BE
:101460003001114301602188890505D5226D01688D
:1014700021F0C001114301602188490505D5626D45
:10148000016821F44071114301602188090505D5E7
:10149000A26D016821F44061114301602188C904F3
:1014A00007D5E26D016821F4405100E041E01143AD
:1014B00001602188890405D5226E016821F440412C
:1014C000114301602168490205D5A26F016821F02E
:1014D00080611143016021684FF0006A890209D5DB
:1014E000E26F016821F0006111430160E16F514535
:1014F00000D1012721680A0700D50127490305D536
:10150000626F016821F04071114301602168090296
:1015100006D5D4F88020016821F080511143016084
:10152000DFF88491012E0ED02068B0F1007F0AD040
:101530008FE05E4AD9F80030104023F4F8120243DD
:10154000C9F8002039E7D9F800004E4620F0806045
:10155000C9F80000FFF712FC804605E0FFF70EFC1B
:10156000A0EB080064287DD830680001F6D421780B
:101570004B487C30C90712D0616B81B9237A62680D
:101580000168D0F800C09201C1F3014142EA014272
:10159000CCF3036142EA016141EA03710160216811
:1015A0000A0303D5E26BB2F5801F04D0C9021AD535
:1015B000216C594517D16368016894F80CC0026822
:1015C0009B01C1F3014143EA0141C2F3027241EAC6
:1015D0000C6141EA027101602968626A21F01F0111
:1015E000521E114329602168C90110D5238A6268FF
:1015F0000168D0F800C09201C1F3036142EA0342DE
:1016000042EA0162CCF3027142EA01710160216891
:1016100089010CD56168228A237B94F808C089016E
:1016200041EA024141EA036141EA0C71016031681B
:10163000B04641F080613160FFF7A0FB064604E050
:10164000FFF79CFB801B64280CD8D8F80000000131
:10165000F6D56FB3D9F800004E4620F08050C9F897
:10166000000000E079E0FFF789FB074605E000BFD6
:10167000FFF784FBC01B64286FD83068C04380002C
:10168000F6D50748216880300A0301D5E26B1AB10C
:10169000C90225D5216C19BB63690168277E08E062
:1016A000083802400070004000380240FFFCFF0F85
:1016B0005AE00268C1F301419B0143EA0143C2F3CE
:1016C000027143EA076242EA0171016029686FF022
:1016D000FF03A26A21F4F85103EB022211432960AF
:1016E0002168890212D5E16F51450FD1238C6269BF
:1016F000016807689201C1F3036142EA034242EACA
:101700000162C7F3027142EA0171016021780907A1
:1017100016D561690268D0F800C08B01277FC2F33B
:101720000362CCF3014143EA014141EA026141EA2B
:10173000077101602868E16A20F44030084328609E
:10174000306840F080503060FFF718FB044607E037
:10175000FFF714FB001B642802D90320BDE8F88FB3
:101760003068C0438000F3D40020F7E72DE9F0474C
:1017700005000F4663D0444E306800F00F00B842B9
:1017800009D2306820F00F0038433060306800F034
:101790000F00B84253D128683C4C810712D540074E
:1017A00003D5206840F4E05020602878000703D576
:1017B000206840F460402060A968206820F0F000B4
:1017C000084320602878C0072AD030496868083963
:1017D000012810D00968022810D0890700292EDAC4
:1017E000216821F0030101432160FFF7C7FA804619
:1017F00041F288390DE009688903EFE78901EDE7D7
:10180000FFF7BCFAA0EB0801494502D90320BDE867
:10181000F0876868216801F00C01B1EB800FEFD10F
:10182000306800F00F00B8420BD9306820F00F008C
:1018300038433060306800F00F00B84201D001201A
:10184000E5E72878400705D5E968206820F4E050EE
:10185000084320602878000706D52869216821F40C
:10186000604141EAC000206000F03CF82168084A6D
:10187000C1F30311515CC840064908600020FFF71E
:1018800021FC0020C3E70000003C02400838024071
:10189000706E000878000020014800687047000062
:1018A000780000200449054809680068044AC1F32B
:1018B0008221515CC84070470838024078000020FF
:1018C000806E00080449054809680068044AC1F3AD
:1018D0004231515CC840704708380240780000200F
:1018E000806E0008154910B51548096811F00C0202
:1018F00013D04110042A0FD0082A0ED10F4C241FF8
:101900002268236802F03F025B0207D52068C0F31B
:101910008810A0FB010106E0084610BD2168C1F354
:101920008811A1FB00010023FEF76AFC2168C1F3C6
:101930000141491C4900B0FBF1F010BD08380240DC
:101940000024F4002DE9F84F05004FF000076ED099
:101950002878DFF81C93A9F1040AC007AAF104044F
:101960004CD0D9F800104846C1F38101012908D0B4
:101970000068C0F3810002280AD1DAF800004002B2
:1019800006D52068800339D568680028DFD035E0A7
:101990006868B0F5803F0BD010B1B0F5A02F11D022
:1019A000206820F480302060206820F4802002E04D
:1019B000206840F480302060686890B1FFF7DEF95D
:1019C00006460AE0206840F480202060F0E700BF6F
:1019D000FFF7D4F9801B642872D820688003F7D5FC
:1019E0000CE0FFF7CBF9064605E000BFFFF7C6F9AC
:1019F000801B6428F0D820688003F7D428788007FB
:101A000042D5D9F80010484611F00C0F08D00068F4
:101A1000C0F3810002280BD1DAF80000400207D49D
:101A20002068800718D5E868012800D114E01CE17F
:101A3000E8680028206817D040F001002060FFF718
:101A40009DF9064605E000BFFFF798F9801B0228C4
:101A5000C2D820688007F7D52869216821F0F801ED
:101A600041EAC00020600FE020F001002060FFF795
:101A700085F9064605E000BFFFF780F9801B0228C4
:101A80001ED820688007F7D42878000729D5784821
:101A900069696C3000298046016812D041F001016B
:101AA0000160FFF76BF9064605E000BFFFF766F936
:101AB000801B022804D8D8F800008007F6D510E073
:101AC00089E021F001010160FFF758F9064604E0C2
:101AD000FFF754F9801B02287DD8D8F80000800752
:101AE000F6D4287840076BD5DFF8848108F13808F0
:101AF000D8F80000C0000BD4D8F8001041F0805195
:101B0000C8F80010D8F80000012700F080500090BD
:101B100058480168C90512D40168834641F48071B0
:101B20000160FFF72BF9064605E000BFFFF726F935
:101B3000801B64284FD8DBF80000C005F6D54C4E5A
:101B4000A868683601280AD008B1052811D0306885
:101B500020F001003060306820F0040002E03068BE
:101B600040F001003060A868A0B1FFF707F9834694
:101B70000CE0306840F004003060F0E7FFF7FEF85A
:101B8000A0EB0B0141F28830814266D830688007B3
:101B9000F4D50EE0FFF7F2F8834607E0FFF7EEF822
:101BA000A0EB0B0141F28830814256D830688007A3
:101BB000F4D42FB1D8F8001021F08051C8F80010EB
:101BC000A869C8B3D9F80010C1F3810102294CD02B
:101BD0000228206800E040E020F08070206003D000
:101BE000FFF7CCF805463BE0FFF7C8F8064604E0EF
:101BF000FFF7C4F8801B02282FD820688001F7D493
:101C0000D5E90962D5E907011B4B570895F82C2047
:101C1000084303EB074343EA8611084340EA0260A6
:101C200040F00050CAF80000206840F0807020604A
:101C3000FFF7A4F8054606E015E000BFFFF79EF8A1
:101C4000401B022809D820688001F7D50BE000BFAF
:101C5000FFF794F8401B022802D90320BDE8F88F53
:101C600020688001F4D40020F8E70120F6E70000A6
:101C700008380240007000400000FFFF2DE9F047E7
:101C8000040005D094F85D000025A56218B107E0B6
:101C90000120BDE8F087204684F85C5000F050F841
:101CA000022284F85D204FF4E0632068016821F08F
:101CB00040010160E068984201D9002101E04FF441
:101CC0008051B0F5706F02D0984200D0A5624FF0FD
:101CD0000109266B2EB9984201D9226301E0C4F8AC
:101CE0003090D4E90468D4E90102278B46EA08065B
:101CF000A36A104307F4007830432668D4E907C28A
:101D000040EA080040EA0C00CC4604271043184380
:101D10003060D4F81880666B606AE26807EA18479A
:101D2000236830433A431043084358602068C16930
:101D300021F40061C161256684F85DC00020A8E738
:101D400070B5194E002205680223184903200524A6
:101D5000B54286B010D10D6845F480550D60096814
:101D6000CDE9022001F480510591F0211048CDE920
:101D700000136946049413E00E4EB54212D10D686B
:101D800045F400550D600968CDE9022001F40051C9
:101D900005914FF4F0410848CDE9001369460494D9
:101DA000FEF7F6FE06B070BD003001404438024038
:101DB00000000240003401400010024004284FF0AF
:101DC000E020016903D021F004010161704741F076
:101DD0000401FAE77047401EB0F1807F10B501D3CF
:101DE000012010BD4FF0E02460610F21601701F069
:101DF0002FFC0020A0610721216110BD10B5FFF765
:101E0000E9FF10BD7047704770B590F83C20012A7B
:101E10001FD0012280F83C2002680F4C5368A24278
:101E2000956802D00D4CA24203D14C6823F4700394
:101E300023430C688968002623F070031C43546018
:101E400025F0800502682943916080F83C603046A7
:101E500070BD022070BD0000000001400004014080
:101E600010B5040003D094F83D0010B107E0012044
:101E700010BD002084F83C00204600F00DF8022040
:101E800084F83D002068211D01F024FD012084F824
:101E90003D00002010BD000008B53A4902683A48EC
:101EA0008A420ED1016841F01001016000680022F1
:101EB000114600F0100000903620FFF771F936202F
:101EC00051E032498A420ED1016841F0200101609F
:101ED00000680022114600F0200000903720FFF734
:101EE0005FF937203FE02849294B091D9A4207D165
:101EF000086840F480300860086800F4803009E029
:101F0000244B9A4208D1086840F400300860086801
:101F100000F40030009008BD1F4B9A4207D10868BA
:101F200040F480200860086800F48020F2E71B4934
:101F30008A4207D1016841F040010160006800F069
:101F40004000E7E716498A4211D1016841F080015B
:101F5000016000680022114600F0800000902C20F3
:101F6000FFF71EF92C20BDE80840FFF70DB90D4919
:101F70008A42D0D1016841F480710160006800F4A8
:101F80008070C7E700100040403802400014004055
:101F9000004001400044014000480140001800405A
:101FA000001C0040002000400168CA6842F00102A5
:101FB000CA600068016841F00101016000207047BB
:101FC00070B5044690F83C00012817D03A4E012520
:101FD00084F83C50022084F83D002268906830402C
:101FE00020F47F4090600868502839D00DDC20280C
:101FF0005BD005DC98B3102843D153E0022070BDBC
:10200000302855D040283CD141E0602830D070289D
:102010000CD0B0F5805F03D0B0F5005F31D112E095
:102020002068254A70328168114016E04A682068AD
:10203000D1E9021301F0BFFC21688868304040F00C
:10204000770088601DE04A682068D1E9021301F03A
:10205000B2FC2068816841F48041816011E01EE09B
:10206000CA684968206801F0DBFD2068502106E05D
:10207000CA684968206801F025FE2068602101F0E7
:10208000A3FC002084F83D5084F83C0070BDCA6871
:102090004968206801F0C4FD20684021EFE720680E
:1020A0000021ECE720681021E9E720682021E6E71D
:1020B00020683021E3E7000088FFFEFF2DE9F041B2
:1020C00004000D4603D094F83D0018B108E001204B
:1020D000BDE8F081002084F83C00204600F042F882
:1020E0001F4A022084F83D00206881681140816009
:1020F0002068211D01F0EEFB226840F20336AF6933
:1021000040F60C4C2B684FF2F00EA86891680B4318
:102110009169B14341EA07210843D5E9031720EA51
:102120000C00D5E9076C20EA0E00D2F820E03F0150
:1021300040EA062668686D69314347EA0C379360C8
:1021400023680F4301229F612EF0AA0141EA051383
:1021500021681843086284F83D200020B8E7000099
:10216000F8FFFEFF00B5006887B00D49884215D121
:102170000C48016841F004010160006800214FF43F
:10218000307200F00400059002200092CDE90101B8
:10219000CDE9031004486946FEF7FAFC07B000BD1C
:1021A00000080040403802400004024010B50446D8
:1021B000006891B1042904D00122002101F0F0FB54
:1021C000206801225FF0040101F0EAFB2068016849
:1021D00041F001010160002010BD01220021F3E760
:1021E00070472DE9F041044690F83C000D46012867
:1021F0003DD0012684F83C60022084F83D00AAB35B
:10220000042A46D02068082A55D0D5E90032E9686A
:10221000076A4FF6FF7C4FF4204E27F48057076281
:102220000CEA0131C769D0F820C00EEA033327F465
:10223000407747EA02222CF4204C22F470421143EA
:10224000C16143EA0C0303622068C16921F4406163
:10225000C1612068A968C26942EA0121C161002008
:1022600084F83D6084F83C00BDE8F08101E0022084
:10227000FAE7EB682068D5E9001201F0E3FC20687A
:10228000816921F00C01816120688169AA6811438C
:102290000FE0EB682068D5E9001201F025FD206809
:1022A000816921F44061816120688169AA6841EAFD
:1022B00002218161D3E7D5E90023297B076A4FF426
:1022C000206C0CEA0222090727F480770762C769AD
:1022D000D0F820C027F003071F432CF4206C27F010
:1022E000F00342EA0C0243EA1161C1610262206814
:1022F000C16921F00C01C1612068AA68C16911435C
:10230000ACE710B5040003D094F83D0010B107E02D
:10231000012010BD002084F83C00204600F00CF89D
:10232000022084F83D002068211D01F0D3FA01202D
:1023300084F83D00002010BD30B5294D002104680F
:102340000222284B87B02848AC4210D11C6844F0C8
:1023500001041C601B68012403F0010305934FF482
:1023600030630093CDE90121CDE9031412E01F4D44
:10237000AC4214D11B4B1B1F1C6844F008041C60AA
:102380001B6803F00803059307230093CDE901219F
:10239000CDE903126946FEF7FBFB07B030BD1448D8
:1023A0008442FAD1186840F00200186018680323CC
:1023B00000F0020005904FF4E0700090CDE901219B
:1023C000CDE903130B486946FEF7E2FB00222C20FF
:1023D0001146FEF7E5FE2C20FEF7D6FEDDE70000F5
:1023E000000001404438024000000240000C004060
:1023F000000401400008024070B504460068002552
:102400000169C943890715D4C168C943890711D433
:10241000EA1E026101212177206880698007204639
:1024200002D0FFF7DDFE04E000F008F9204600F0DE
:10243000F9F9257720680169C943490717D4C168AC
:10244000C943490713D402216FF0040202612177C6
:102450002068806910F4407F204602D0FFF7C0FE5C
:1024600004E000F0EBF8204600F0DCF92577206866
:102470000169C943090716D4C168C943090712D4C1
:1024800004216FF00802026121772068C06980078B
:10249000204602D0FFF7A4FE04E000F0CFF820466B
:1024A00000F0C0F9257720680169C943C90617D42F
:1024B000C168C943C90613D408216FF01002026134
:1024C00021772068C06910F4407F204602D0FFF7D2
:1024D00087FE04E000F0B2F8204600F0A3F925776B
:1024E00020680169C943C90708D1C168C943C90740
:1024F00004D1891E0161204600F0B2F920686FF016
:1025000080050169C943090607D4C168C9430906A2
:1025100003D405612046FFF775FC20680169C943B3
:10252000C90507D4C168C943090603D4056120461B
:10253000FFF768FC20680169C943490609D4C168EE
:10254000C943490605D46FF040010161204600F0FF
:10255000FDF920680169C94389060BD4C168C943E4
:10256000890607D46FF0200101612046BDE8704064
:10257000FFF749BC70BD0000F0B5034626480022B5
:1025800002211C6885B0B4F1804F09D0234D03238C
:10259000AC4213D101AC009184E80E00049130E00C
:1025A00001244FF400630093CDE90112CDE9032427
:1025B000694600BFFEF7ECFA05B0F0BD184DAC421D
:1025C00007D160208DE80700CDE90313154869465F
:1025D000F0E7154D154EAC4201D1402003E0144DFB
:1025E000AC4204D180208DE80F00049311E0114F1C
:1025F0000925BC4207D1E3000093CDE90112CDE9E2
:1026000003156946D6E70C488442D5D140158DE8BC
:102610002F0069463046CDE7000402400004004028
:1026200000400140001002400044014000140240FC
:10263000004801400018004000200040704770B57D
:1026400004000D4603D094F83D0010B107E00120CE
:1026500070BD002084F83C00204600F015F80220F0
:1026600084F83D002068211D01F034F92068012222
:10267000016821F0080101602068016829430160B8
:1026800084F83D20002070BD704770B5044690F876
:102690003C000D4601280ED0012684F83C60022043
:1026A00084F83D000C2A45D007DC5AB1042A1BD01F
:1026B000082A78D12CE0022070BD102A4ED0142AAE
:1026C00071D15DE0206801F087F92068816941F0EF
:1026D000080181612068816921F00401816120681D
:1026E0002A698169114311E0206801F0A9F9206885
:1026F000816941F4006181612068816921F4806110
:10270000816120682969826942EA012181614AE088
:10271000206801F0CBF92068C16941F00801C1616E
:102720002068C16921F00401C16120682A69C1697A
:10273000114311E0206801F0EFF92068C16941F40C
:102740000061C1612068C16921F48061C1612068B4
:102750002969C26942EA0121C16124E0206801F0CF
:1027600007FA2068416D41F0080141652068416D1C
:1027700021F00401416520682A69416D114311E08F
:10278000206801F021FA2068416D41F40061416543
:102790002068416D21F48061416520682969426D9E
:1027A00042EA01214165002084F83D6084F83C0044
:1027B00070BD10B5040003D094F83D0010B107E0DF
:1027C000012010BD002084F83C00204600F00CF8E9
:1027D000022084F83D002068211D01F07BF80120D3
:1027E00084F83D00002010BD08B501680B48B1F128
:1027F000804F0BD00A4A914207D1016841F0020193
:102800000160006800F00200009008BD016841F01E
:1028100001010160006800F00100F5E74038024066
:10282000000400407047000010B501220446006813
:1028300001F0B6F808492068884202D0074988426A
:1028400003D1416C41F4004141642068016841F0CA
:1028500001010160002010BD0000014000040140A2
:1028600010B5314A0168914255D13049314B0A685F
:102870002F491268C2F300120A70002A0A461C6827
:10288000526821D0121B00EE102AB8EE400AB1EEB9
:10289000400A00BF81ED0F0AD1ED0E0A60EE200A5A
:1028A000C1ED0F0A91ED100A70EEC00AC1ED110AD8
:1028B00091ED081AF0EEE00AF4EEC10AF1EE10FA1A
:1028C00008DC91ED0F0A07E0A21A00EE102AB8EE1C
:1028D000400ADFE781ED0F0A81ED100A91ED121A2F
:1028E000F1EE080AFDF77EFF10EE102A124C81ED82
:1028F0000F0AA24281ED120A03DD9FED100A81ED5D
:102900000F0A0F4CCA6BA24203D99FED0E0A81ED4C
:102910000F0A1A684A6000680B49884203D1BDE873
:10292000104000F0A7BE10BD001000409806002027
:1029300020000020240800400020CB450020CB458B
:102940000020CBC50020CBC5001400407047704765
:1029500070B501680446C8690A688B6810F00F0FEB
:102960005CD003F0010502F490762E4369D0C607CF
:1029700007D0D60505D501260E62E16E41F00101B2
:10298000E166810708D5D90706D0266802213162A1
:10299000E16E41F00401E166410708D5D90706D090
:1029A000236804211962E16E41F00201E16601072A
:1029B0000AD502F02001294306D0236808211962B4
:1029C000E16E41F00801E166E16E002932D0800637
:1029D00004D5900602D5204601F044FAE06E0007C7
:1029E00003D420688068400625D5204601F02CFAE3
:1029F0002068816849061AD5816821F0400181600C
:102A0000606EA0B12F490165606EFEF79DF8002849
:102A100010D0606E016DBDE870400847830610D588
:102A200093060ED52046BDE8704001F01BBA204643
:102A3000FFF78DFF70BD2046FFF789FF0020E0669D
:102A400070BD03062FD513062DD594F869002128F3
:102A5000F6D1B4F8520020B1A068B0F5805F0AD07A
:102A60000BE0086820F0800008602068016841F0F1
:102A70004001016070BD206960B1E06C411CE164FF
:102A800021680078C1F82800B4F85200401EA4F86C
:102A9000520070BDE06C0088C0F308008862E06CF2
:102AA000801CE064F0E74006F3D55006F1D50B68D2
:102AB0002022204623F040030B6084F8692000F0B8
:102AC00066F870BD353E000810B5040003D094F8D8
:102AD000690010B107E0012010BD002084F86800F3
:102AE000204600F027F8242084F869002068016857
:102AF00021F001010160204601F0F0F90128EBD03E
:102B0000606A10B1204601F011F92068416821F493
:102B1000904141602068816821F02A01816020682D
:102B2000016841F0010101602046BDE8104001F05C
:102B300061B9000010B5006886B0114988421CD107
:102B40001048016841F080410160006802210022C4
:102B500000F080400590032308244FF4C0708DE8F6
:102B60001F0009486946FEF713F80022522011465B
:102B7000FEF716FB5220FEF707FB06B010BD000063
:102B80000078004040380240001002407047704713
:102B9000FEE701688A69D243920701D400228A6263
:102BA00000688169C943C90703D0816941F0010107
:102BB000816170472DE9F0410446006890460E4659
:102BC0008069C043C0062FD4002520272068806973
:102BD000C043800611D5701CF8D02EB1FEF7CEF898
:102BE000A0EB0800B042F1D984F8417084F842505B
:102BF000032084F84050BDE8F08121681020C861AE
:102C00002068C7612046FFF7C4FF206804220749F7
:102C100043680B404360626484F8417084F842501A
:102C2000012084F84050E6E70020E4E700E800FED9
:102C30002DE9F8430446194817461E46DAB20090BB
:102C4000C3022046DDE9089800F02AF842464946CA
:102C5000204600F08CF818B1606C04281CD018E0F5
:102C6000012EFDB209D02068390A816242464946E8
:102C7000204600F07CF80028EED120688562002212
:102C800080214B462046CDF8008000F01FF8002838
:102C900000D00320BDE8F8830120FBE7002000807E
:102CA00070B50068C1F30901074E41EA0241049C76
:102CB0004FF480654268194305EA54553543AA43E9
:102CC00021430A43426070BDFF63FF032DE9F041D9
:102CD0001D4617460E460446DDF8188013E0681CB2
:102CE00011D02DB1FEF74AF8A0EB0800A8420AD98E
:102CF0000020202184F8411084F8420084F840002C
:102D00000320BDE8F0812068806936EA000004D025
:102D10000020B842E3D00020F3E70120F9E770B5C6
:102D200016460D4604461BE0324629462046FFF76C
:102D300041FF08B1012070BD25B1FEF71FF8801BCF
:102D4000A8420DD9626C002084F84000202142F096
:102D50002002626484F8411084F84200032070BDB0
:102D600020688069C0438006DED4002070BD70B545
:102D700016460D4604461DE0324629462046FFF71A
:102D800019FF08B1012070BD681C13D025B1FDF7F3
:102D9000F5FF801BA8420DD9626C002084F840002A
:102DA000202142F02002626484F8411084F842003D
:102DB000032070BD20688069C0438007DCD40020F8
:102DC00070BD00007FB513480124114A002123047F
:102DD00002601D020161846143600F4A0162C0E923
:102DE0000A21C461C0E9025144610163FDF758FE44
:102DF00000B1FEE70721092000900648CDE9014116
:102E00006946FDF7FBFC002800D0FEE77FBD00000F
:102E1000002201407C0400200100000F2DE9F04F4A
:102E2000774887B0016841F010010160016801F046
:102E300010010591016841F004010160016801F091
:102E400004010591016841F020010160016801F071
:102E500020010591016841F080010160016801F0E5
:102E600080010591016841F001010160016801F0F4
:102E700001010591016841F002010160016801F062
:102E800002010591016841F040010160016801F013
:102E900040010591016841F008010160006843F2BA
:102EA0002005DFF860A1002200F008002946059007
:102EB0005046FDF75DFF544E002220213046FDF7BD
:102EC00057FFDFF848B14FF45057002239465846B3
:102ED000FDF74EFF4FF480784D4800224146FDF744
:102EE00047FF4FF480694B4800224946FDF740FFF9
:102EF00049480022FF21FDF73BFF484800220121FD
:102F0000FDF736FF002469460E200294CDE9000447
:102F10004248FDF73DFE00950125CDE90154694683
:102F200050460394FDF734FE4FF44E406946CDE918
:102F3000000450460294FDF72BFE43F6104069460C
:102F4000CDE9000430460294FDF722FE20200090D7
:102F5000CDE90154694630460394FDF719FE082077
:102F60006946CDE900042B480294FDF711FE2C4E72
:102F7000102069460294CDE900065046FDF708FE90
:102F8000E8036946CDE9000624480294FDF700FEF7
:102F900000976946CDE9015458460394FDF7F8FDC2
:102FA0004BF6E0406946CDE9000419480294FDF76C
:102FB000EFFDCDF800806946CDE901541448039433
:102FC000FDF7E6FDCDF800906946CDE901541148C2
:102FD0000394FDF7DDFDFF200090CDE901540E487C
:102FE00069460394FDF7D4FD00956946CDE9015487
:102FF0000A480394FDF7CCFD07B0BDE8F08F000050
:103000003038024000080240001402400004024030
:103010000018024000000240000C02400010024074
:10302000000011101148002110B50F4C0123104A67
:103030000460C0E90121C0E9033141618161C161DE
:103040000162FDF7F7FE00B1FEE708480021FDF739
:103050009BFE00B1FEE705480021FDF7C1FE0028F8
:1030600000D0FEE710BD000000580040C40400205E
:103070000D03006010484FF4407370B500210D4DF2
:103080004FF48274C0E902134FF480220161C0E959
:1030900000540723C0E90512C1610824016241629E
:1030A000C0E90A13C0E90C14FEF7E8FD002800D0BF
:1030B000FEE770BD003001401005002010484FF4BD
:1030C000407370B500210D4D4FF48274C0E90213B6
:1030D0004FF480220161C0E900540723C0E90512C2
:1030E000C161082401624162C0E90A13C0E90C14FD
:1030F000FEF7C4FD002800D0FEE770BD003401409B
:103100007405002018484FF6FF7110B50024154BC8
:1031100088B00B22C0E9024104618461C0E9003239
:10312000FEF79EFE00B1FEE70F48FFF742FB00B13D
:10313000FEE70D480821FFF782FA00B1FEE7702094
:10314000029404210491CDE9000407480022694655
:10315000FFF79BFA00B1FEE70348FFF70DFA08B04E
:1031600010BD0000004401401808002017484FF629
:10317000FF7110B50024144B88B00B22C0E9024146
:1031800004618461C0E90032FEF76AFE00B1FEE727
:103190000E48FFF70EFB00B1FEE70C480821FFF7D1
:1031A0004EFA00B1FEE760206946CDE90004074809
:1031B000002202940494FFF768FA00B1FEE7034886
:1031C000FFF7DAF908B010BD0048014058080020A8
:1031D0001C4841F2873110B50024194A8CB0C0E96F
:1031E0000024C0E9024104618461FEF739FE00B1A8
:1031F000FEE74FF480500790124807A9FEF7E0FE63
:1032000000B1FEE70F48FFF7D4FA00B1FEE76020F7
:103210006946CDE900040B48002202940494FFF7AC
:1032200034FA00B1FEE7074804226946FFF72DFA99
:1032300000B1FEE70348FFF79FF90CB010BD000096
:10324000001800409808002015484DF2EF2110B5F5
:103250000024124B88B00122C0E90241046184615C
:10326000C0E90032FEF7FCFD00B1FEE70C48FFF7B5
:10327000A0FA00B1FEE7602046F678118DE8130051
:103280000748002269460494FFF7FFF900B1FEE702
:103290000348FFF771F908B010BD0000002000409E
:1032A0001809002030B51C4800241A4991B0C0E923
:1032B00000148460C460046144618461FFF721F8F4
:1032C00000B1FEE701250494CDE90054CDE9025494
:1032D000CDE905451048694607940894FEF7EEFECF
:1032E00000B1FEE70C480DA90D940E940F94FEF763
:1032F0008BFD00B1FEE7CDE9094507480C2209A97D
:103300000B940C94FEF76DFF002800D0FEE711B07F
:1033100030BD000000000140D8050020154841F2F2
:10332000873110B500248AB04FF08042C0E90024F4
:10333000C0E9024104618461FFF73BFA00B1FEE796
:103340000C4807A907940994FEF75EFD00B1FEE75B
:1033500060206946CDE9000406480C2202940494DA
:10336000FFF793F900B1FEE70248FFF705F90AB04D
:1033700010BD000018060020164840F6193110B59F
:103380000024134A8AB0C0E90024C0E90241046164
:103390008461FFF70EFA00B1FEE70E4807A9079413
:1033A0000994FEF731FD00B1FEE7602040F28D5137
:1033B0008DE8130007480C2269460494FFF765F96D
:1033C00000B1FEE70348FFF7D7F80AB010BD0000D0
:1033D000000400405806002015484FF6FF7330B532
:1033E000124D8DB00560002444600122C0E9024303
:1033F00004610F21846103250095CDE90142CDE9E7
:103400000341CDE90542CDE907416946FEF756FE85
:1034100000B1FEE7064809A909940B94FEF7F4FCF5
:10342000002800D0FEE70DB030BD000000080040CD
:103430009806002030B51B480024194991B0C0E916
:1034400000148460C46004618461FEF75AFF00B117
:10345000FEE701250494CDE90054CDE90254CDE9FD
:1034600005451048694607940894FEF727FE00B109
:10347000FEE70C480DA90D940F94FEF7C5FC00B1B2
:10348000FEE7CDE909450748082209A90B940C94E9
:10349000FEF7A7FE002800D0FEE711B030BD000007
:1034A000000C0040D80600203EB50D4842F20F71D6
:1034B00000240A4B6B22C0E902418461C0E900325A
:1034C000FEF7CEFC00B1FEE7054869460094029481
:1034D000FEF79AFC002800D0FEE73EBD0010004039
:1034E000180700203EB50D4840F2E73100240A4B92
:1034F000D722C0E902418461C0E90032FEF7B0FC86
:1035000000B1FEE70548694600940294FEF77CFC92
:10351000002800D0FEE73EBD001400405807002000
:1035200030B51C4800241A4991B0C0E900148460E9
:10353000C460046144618461FEF7E3FE00B1FEE70C
:1035400001250494CDE90054CDE90254CDE90545A7
:103550001048694607940894FEF7B0FD00B1FEE7F5
:103560000C480DA90D940E940F94FEF74DFC00B17C
:10357000FEE7CDE909450748082209A90B940C94F8
:10358000FEF72FFE002800D0FEE711B030BD00008E
:1035900000040140980700201D4841F2873110B512
:1035A00000241A4B8CB00122C0E9024104618461FD
:1035B000C0E90032FEF754FC00B1FEE74FF4805042
:1035C0000790134807A9FEF7FBFC00B1FEE710487F
:1035D000FFF7EFF800B1FEE760206946CDE900048F
:1035E0000B48002202940494FFF74FF800B1FEE765
:1035F00004200490024606486946FFF746F800B1E9
:10360000FEE70348FEF7B8FF0CB010BD00400140D4
:10361000D80700200C48002110B50A4C0C224FF4AA
:10362000E1330460C0E90131C160C0E90412816185
:10363000C16101624162FFF747FA002800D0FEE74E
:1036400010BD00000078004058090020FEE77047D8
:10365000090700284FEA116106DA00F00F0000F1B7
:10366000E02080F8141D704700F1E02080F800147D
:103670007047000010B5334C9FED330A2DED048BDD
:1036800082B0D4ED020A94ED0F1A30EEC18A84EDB7
:10369000058AD4ED040A18EE100A78EE600A60EE8E
:1036A000808AC4ED068AFCF7F5FE9FED281B53ECDB
:1036B000112BFCF77DFE94ED070AD4ED0C0A41ECCA
:1036C000190B20EE200A10EE100AFCF7E3FE53EC73
:1036D000192BFCF7C6FDFCF7F0FE00EE100A84ED96
:1036E000070AD4ED0D0AB4EEE00AF1EE10FA06DC9A
:1036F000F1EE600AB4EEE00AF1EE10FA01D2C4ED88
:10370000070A84ED048A94ED090AD4ED070A94EDC2
:103710000A1A28EE000AD4ED0B1A002003460246CE
:1037200000EE810A014608EEA10A84ED030ABDEE0F
:10373000C00A009010EE100A00F00EF802B0BDECC6
:10374000048B10BD200000200000FA43FCA9F1D238
:103750004D62603F7047704708490028096807DAE2
:10376000074A904208DB00BF00F6C4108863704728
:1037700040F6C4129042F7DD1046F5E7D807002066
:103780003CF6FFFF10B5FDF789FCBDE81040FEF7E1
:1037900035BB00002B4830B5B3B0016841F0805113
:1037A0000160006800F0805032902748016841F4C1
:1037B00040410160006802240423299300F4404042
:1037C00032900120D82582050104CDE92742CDE9B8
:1037D0002A542C94CDE9210121A8FEF7B3F800B1B9
:1037E000FEE7FDF70FFD00B1FEE74FF480524FF406
:1037F000A0510025CDE930122DAA0F20072182E823
:1038000031002DA8FDF7B2FF00B1FEE74FF41040E4
:1038100017951A9500906846FDF72AFD00B1FEE75E
:10382000FEF73AF84FF47A71B0FBF1F0FEF7D3FAF5
:103830000420FEF7C3FA0022501E1146FDF7B0FC2B
:1038400033B030BD4038024000700040104A30B5FF
:103850001048146800210F4B44F4700414600833BE
:1038600005680D4A0D4C45F00105056019600368B7
:10387000051D1340074A03600C322C600568E30500
:10388000034C25F480250560803C1160236030BD29
:1038900088ED00E000380240FFFFF6FE1030002403
:1038A0000148FEF7A9BD0000180700200148FEF7F7
:1038B000A3BD000058070020044810B5FEF79CFD8A
:1038C000BDE810400248FEF797BD000098070020B1
:1038D000D8080020F0B5274B4FF0804E264D0268E7
:1038E0009842264E264F274C09D0704507D0A84253
:1038F00005D0B04203D0B84201D0A04205D1D1F8E2
:1039000004C022F070024CEA020298421BD07045BB
:1039100019D0A84217D0B04215D0B84213D0A04257
:1039200011D0194DA8420ED0184DA8420BD0184DF9
:10393000A84208D0174DA84205D0174DA84202D082
:10394000164DA84203D1CD6822F440722A434D6936
:1039500022F080022A43026098428A68C2620A68A2
:10396000826201D0A04201D1096901630121416154
:10397000F0BD0000000001400004004000080040CD
:10398000000C0040000401400040014000440140A0
:103990000048014000180040001C0040002000408A
:1039A00010B5046A01238A408B409C430462016A7B
:1039B0001143016210BD42EA032283680A4323F4E3
:1039C0007F410A4382607047826822F070020A4396
:1039D00042F0070181607047F0B5026A164B154F3F
:1039E00022F0010298420262066A4268846926F067
:1039F00002068B680D6804EA070424F0030443EA16
:103A0000060345EA040502D00C4CA0420BD1CC6859
:103A100022F44077D1E9056223F008031C433E43BA
:103A2000324324F0040342608561496841630362C4
:103A3000F0BD00008FFFFEFF0000014000040140C8
:103A4000F0B5026A174B164D22F01002984202623E
:103A5000046A4268836924F020048F680E6803EAD0
:103A6000050323F4407544EA071345EA062402D00F
:103A70000D4DA8420ED1CD6823F08003D1E9056732
:103A800022F4406243EA051342EA860223F040032F
:103A900042EA870242608461496881630362F0BD43
:103AA000FF8FFFFE0000014000040140F0B5026AF4
:103AB000174B164F22F4807298420262056A4368DF
:103AC000C26925F400758E6802EA07020C6822F0CC
:103AD000030745EA062244EA070402D00D4DA84236
:103AE0000ED1CD6822F40062D1E9056723F440537A
:103AF00042EA052243EA061322F4806243EA0713EE
:103B00004360C4614968C1630262F0BD8FFFFEFF7C
:103B10000000014000040140F0B5026A124B114F51
:103B200022F4805298420262046A4268C36924F413
:103B300000548E680D6803EA070323F4407344EAD7
:103B4000063443EA052302D0084DA84204D14D694A
:103B500022F4804242EA85124260C36149680164EE
:103B60000462F0BDFF8FFFFE000001400004014031
:103B7000F0B5026ADFF844C022F480320262056ABE
:103B80004268446D25F400350E8960450C4F0B6882
:103B900004EA070445EA064543EA040302D0094C57
:103BA000A04204D14C6922F4803242EA04224260ED
:103BB0004365496881650562F0BD00000000014071
:103BC0008FFFFEFF00040140F0B5026ADFF844C039
:103BD00022F480120262046A4268436D24F40014E5
:103BE0000E8960450C4F0D6803EA070344EA06544A
:103BF00043EA052302D0094DA84204D14D6922F4BD
:103C0000802242EA8522426043654968C1650462B8
:103C1000F0BD000000000140FF8FFFFE00040140E6
:103C200010B5036A046A23F00A0324F00104046255
:103C300084690B4324F0F00141EA021181610362BF
:103C400010BD000070B5046A174D24F00104046231
:103C5000A8428469056A14D0B0F1804F11D0134E88
:103C6000B0420ED0124EB0420BD0124EB04208D02D
:103C7000114EB04205D0114EB04202D0104EB042AB
:103C800003D124F00304144301E044F001041A07B3
:103C900024F0F00325F00A0401F00A01214343EA6D
:103CA00012628261016270BD0000014000040040A8
:103CB00000080040000C00400004014000400140AA
:103CC0000018004010B5036A23F0100303628369F3
:103CD000046A23F4704324F0A00443EA02328261B0
:103CE00044EA0111016210BD70B5056AA0244FF6C7
:103CF000FF7606EA033325F01005056204EA011198
:103D00008469056A24F4407425F0A00544EA02227F
:103D1000294322F4704213438361016270BD0000A5
:103D20000148FEF715BE00005809002090F8241045
:103D3000C90706D00168836A4A6822F400321A4330
:103D40004A6090F82410890706D50168C36A4A685A
:103D500022F480321A434A6090F82410490706D5AD
:103D60000168036B4A6822F480221A434A6090F883
:103D70002410090706D50168436B4A6822F4004203
:103D80001A434A6090F82410C90606D50168836B6F
:103D90008A6822F480521A438A6090F824108906B7
:103DA00006D50168C36B8A6822F400521A438A6000
:103DB00090F82410490611D50168036C4A6822F472
:103DC00080121A434A60016CB1F5801F06D1016868
:103DD000436C4A6822F4C0021A434A6090F82410E7
:103DE000090606D50168826C486820F4002010435B
:103DF0004860704738B500250446C566FCF7BEFF2D
:103E000003462068006800070BD56FF07E400090E5
:103E1000002220464FF4001100F08CF908B1032075
:103E200038BD202084F8690084F8685084F86A005E
:103E3000002038BD10B5806B0021A0F85A10A0F802
:103E40005210FEF784FD10BD016820220B6823F498
:103E500090730B6001688B6823F001038B6080F81E
:103E60006A20704710B590F86A10B0F85C202229DB
:103E7000016805D0886940F008008861022010BD03
:103E80008368B3F5805F01D1036973B14B6A416DFB
:103E900013404A1C42650B70B0F85A10491E0904C1
:103EA000090CA0F85A1008D016E04B6A416D134077
:103EB0000B80416D891C4165EEE7016820220B688B
:103EC00023F490730B6001688B6823F001038B600F
:103ED00080F86A20FEF75AFE002010BD2DE9F04759
:103EE00004468068874B884F2668D4E90415E26948
:103EF0000843D6F800C01021154300222843154678
:103F00000CEA030C814B4CEA000CC6F800C04FF4DD
:103F100000492068D4F80CC0466826F4405646EAAA
:103F20000C0646602668D4F82080A069D6F808C040
:103F300040EA08002CF4306C4CEA000CC6F808C0CB
:103F40002068B8420AD11B6813F0030352D0012B3A
:103F50007AD0022B76D0032B79D177E06C4EB04229
:103F60000AD11B6813F00C036AD0042B6CD0082B09
:103F700068D00C2B6BD169E0664EB0420AD11B6849
:103F800013F030035CD0102B5ED0202B5AD0302B96
:103F90005DD15BE0604EB0420AD11B6813F0C003F4
:103FA0004ED0402B50D0802B4CD0C02B4FD14DE069
:103FB0005A4EB0420DD11B6813F4407340D0B3F594
:103FC000807F41D0B3F5007F3CD0B3F5407F3ED138
:103FD0003CE0534EB0420FD11B6813F4406309D04C
:103FE000B3F5806F30D0B3F5006F2BD0B3F5406FD1
:103FF0002DD12BE001212AE04A4EB0420DD11B68A1
:1040000013F440531CD0B3F5805F1DD0B3F5005FAF
:1040100018D0B3F5405F1AD118E0434EB04216D124
:104020001B6813F440430BD0B3F5804F0CD04B45C5
:1040300008D0B3F5404F0AD108E005E002E0FFE701
:10404000002104E0022102E0042100E00821E669E9
:104050004E452AD109291FD2DFE801F00508141EB8
:10406000171E1E1E1A00FDF71DFC01E0FDF72AFCBD
:104070000146D4F80400490001EB5001B1FBF0F017
:1040800082B20AE029496068F6E7FDF72BFCEFE70A
:1040900060684FF48031EFE70125216822F00F00BE
:1040A000C2F342021043C86028E0092925D2DFE8A4
:1040B00001F005080B24102424241C00FDF7F2FB5A
:1040C00009E0FDF7FFFB06E06168194A02EB5102C7
:1040D0000EE0FDF707FC0146D4E9002001EB50019A
:1040E000B1FBF0F080B2D06008E0616809EB5102EA
:1040F000B2FBF1F189B2C16000E001252846BDE8BC
:10410000F0870000F369FFEF001001409038024093
:104110000044004000480040004C00400050004077
:104120000014014000780040007C00400048E80195
:104130000024F4002DE9F041984617460E46044647
:10414000069D1DE0681C1BD02DB1FCF717FEA0EBEF
:104150000800A84214D32168202000220B6823F411
:10416000D0730B6021688B6823F001038B6084F8A7
:10417000690084F86A00032084F86820BDE8F081B3
:104180002068C06936EA000004D00020B842D9D0C7
:104190000020F3E70120F9E7FEE702E008C8121F5C
:1041A00008C1002AFAD170477047002001E001C120
:1041B000121F002AFBD17047FCF778FFFFF7EAFADD
:1041C000FEF72CFEFEF7FEFDFEF72CFFFEF752FF7A
:1041D000FEF774FFFFF766F8FFF7A0F8FFF7CCF8DB
:1041E000FFF728F9FFF79CF9FFF7D6F9FEF78AFFEA
:1041F000FEF7BCFFFEF7ECFFFFF726F8FFF70AFA21
:10420000FFF752F9644842F20F72002141F217534E
:10421000604CC0E9021201618161C0E90043FDF711
:104220001FFE00B1FEE7FFF75DF9FFF7D5F800F0DC
:104230000BF9594800214030FEF7F6FA57480C2197
:10424000FEF7F2FA56480421FEF7EEFA5448002130
:10425000FEF7EAFA504800214038FEF7E5FA4E48EA
:1042600004214038FEF7E0FA4C480C214038FEF7B4
:10427000DBFA4A4800214030FDF798FF4748042107
:104280004030FDF793FF4548C030FDF78DFE4448B0
:104290008038FDF789FE4048FDF786FE0122414E39
:1042A000540330462146FCF763FD6510304600227A
:1042B0002946FCF75DFD21463B4C00222046FCF7D9
:1042C00057FD3A4800220121FCF752FD38480022F0
:1042D000A115FCF74DFD374800222115FCF748FDDC
:1042E000012229462046FCF743FD9620FCF73EFCC0
:1042F000002229462046FCF73BFDC820FCF736FC8F
:10430000012229462046FCF733FD9620FCF72EFCBF
:10431000002229462046FCF72BFD00F095F80020EE
:1043200000F082F800F0FEF80021282000F0F4F8F8
:1043300021480123D0E9001220A000F079F91E21C4
:104340000B2000F0E9F81E480123D0E900121DA05F
:1043500000F06EF92D21142000F0DEF81D48012335
:10436000D0E900121CA000F063F900F0DBF840F285
:10437000DC50FCF7FBFB002000F056F800F0D2F810
:10438000184C01212046FCF7EFFC02212046FCF7E7
:10439000EBFCFEE7001C0040D80800205806002077
:1043A000D80700200004024000080240001002402C
:1043B0000018024000000240100000204D524C0046
:1043C000000000204D41494E20424F41524420768A
:1043D000312E30000800002053534C203230313849
:1043E00000000000000C024030B5802813D24029A4
:1043F00011D20B4B01F00704C90800EBC1110948A9
:104400001D790123A3400DB132B101E0012A03D08F
:10441000425C9A43425430BD425C1A43FAE70000C2
:10442000180000207C000020064A00214FF4806321
:1044300010B528B1FF245454491C9942F9D310BD3A
:104440000024F8E77C000020642010B5FCF78EFB08
:10445000AE2000F0DBF8202000F0D8F8102000F0AB
:10446000D5F8B02000F0D2F8C82000F0CFF8002036
:1044700000F0CCF8102000F0C9F8402000F0C6F899
:10448000812000F0C3F8FF2000F0C0F8A12000F068
:10449000BDF8A62000F0BAF8A82000F0B7F83F2039
:1044A00000F0B4F8A42000F0B1F8D32000F0AEF88A
:1044B000002000F0ABF8D52000F0A8F8F02000F0C4
:1044C000A5F8D92000F0A2F8222000F09FF8DA2009
:1044D00000F09CF8122000F099F8DB2000F096F82C
:1044E000202000F093F88D2000F090F8142000F0C8
:1044F0008DF8AF2000F08AF80020FFF795FF00F05C
:1045000011F80448002101220180418042711046C7
:1045100010BD000018000020014A10805180704733
:1045200018000020FEB5104F64258026002400BF2F
:1045300004F1B000C0B200F069F8002000F066F8A5
:10454000102000F063F807EBC4100295CDE90006D7
:104550000648012340227821FCF7C8FC641CE4B221
:10456000082CE5D3FEBD00007C000020C404002020
:104570002DE9FF4F824624489346CEB2028832444A
:10458000802A06D281464088C1F307273844402854
:1045900003D3002004B0BDE8F08F002528E000BF61
:1045A000AAF12000002410FB07513BF811801CE009
:1045B00008FA04F0000409D599F8021099F80000EF
:1045C0002944039A2044C9B2C0B20BE00398C0B199
:1045D0005FF0000299F8021099F800002944204485
:1045E000C9B2C0B2FFF700FF641CA642E0D86D1C40
:1045F000AF42D5D8B9F8001050463144A9F80010A0
:10460000C8E70122E6E700001800002001B584B0E9
:104610000A22012104A80B468DE807000348002266
:104620007821FCF763FC05B000BD0000C404002045
:10463000F0B51D460E46174604460AE02B463A469C
:104640003146FFF795FF2178884201D0C8B2F0BD0E
:10465000641C20780028F1D1C0B2F0BD0000000039
:10466000000000000000000000000000000000004A
:1046700000100010001000100010001000000010CA
:1046800000000000002800280028000000000000B2
:10469000000000000000000000240024007C002432
:1046A0000048007C0048004800000000003800542A
:1046B000005000380014005400540038001000006E
:1046C0000020005400580030002800540014000856
:1046D00000000000001000280028001000340048EE
:1046E000004800340000000000100010001000001E
:1046F00000000000000000000000000000080010A2
:1047000000200020002000200020002000100008D1
:104710000020001000080008000800080008000839
:1047200000100020001000380010002800000000D9
:104730000000000000000000000000000010001059
:10474000007C0010001000000000000000000000CD
:104750000000000000000000000000100010001029
:104760000000000000000000000000380000000011
:104770000000000000000000000000000000000039
:1047800000000010000000000008000800100010E9
:10479000001000100020002000000000003800443D
:1047A000004400540044004400440038000000006D
:1047B0000010003000500010001000100010001019
:1047C000000000000038004400440004000800100D
:1047D0000020007C000000000038004400040018A5
:1047E0000004000400440038000000000008001825
:1047F000002800280048007C000800080000000095
:10480000007C0040004000780004000400440038B0
:1048100000000000003800440040007800440044DC
:104820000044003800000000007C00040008001074
:10483000001000200020002000000000003800448C
:1048400000440038004400440044003800000000E8
:104850000038004400440044003C00040044003898
:104860000000000000000000001000000000000038
:104870000000001000000000000000000000001018
:1048800000000000000000100010001000000000F8
:10489000000C003000400030000C00000000000060
:1048A000000000000000007C0000007C0000000010
:1048B0000000000000000000006000180004001864
:1048C0000060000000000000003800440004000800
:1048D000001000100000001000000000003800442C
:1048E000004C0054005C0040004000380000000014
:1048F00000100028002800280028007C0044004404
:1049000000000000007800440044007800440044A7
:1049100000440078000000000038004400400040DF
:1049200000400040004400380000000000700048D3
:1049300000440044004400440048007000000000AF
:10494000007C00400040007C004000400040007CB3
:1049500000000000007C0040004000780040004063
:1049600000400040000000000038004400400040CB
:10497000005C004400440038000000000044004493
:104980000044007C00440044004400440000000057
:104990000038001000100010001000100010003847
:1049A00000000000000400040004000400040004EF
:1049B000004400380000000000440048005000603F
:1049C0000050004800480044000000000040004043
:1049D00000400040004000400040007C000000001B
:1049E0000044006C006C0054004400440044004447
:1049F0000000000000440064006400540054004CB7
:104A0000004C004400000000003800440044004412
:104A100000440044004400380000000000780044D6
:104A200000440044007800400040004000000000C6
:104A3000003800440044004400440044005400385E
:104A4000000400000078004400440044007800485E
:104A500000480044000000000038004400400030DE
:104A6000000800040044003800000000007C001032
:104A700000100010001000100010001000000000D6
:104A80000044004400440044004400440044003812
:104A900000000000004400440044002800280028D2
:104AA00000100010000000000044004400540054B6
:104AB0000054006C0028002800000000004400287A
:104AC000002800100010002800280044000000000A
:104AD00000440044002800280010001000100010BE
:104AE00000000000007C00040008001000100020FE
:104AF0000040007C000000000018001000100010B2
:104B000000100010001000100010001800200020FD
:104B10000010001000100010000800080000000045
:104B200000300010001000100010001000100010E5
:104B30000010003000100028002800440000000091
:104B40000000000000000000000000000000000065
:104B50000000000000000000000000FE0020001027
:104B60000000000000000000000000000000000045
:104B70000000000000380044003C0044004C0034B9
:104B80000000000000400040005800640044004461
:104B900000640058000000000000000000380044DD
:104BA0000040004000440038000000000004000401
:104BB0000034004C00440044004C0034000000006D
:104BC0000000000000380044007C00400044003831
:104BD00000000000000C0010007C0010001000100D
:104BE0000010001000000000000000000034004C25
:104BF00000440044004C00340004007800400040B1
:104C000000580064004400440044004400000000D8
:104C100000100000007000100010001000100010C4
:104C200000000000001000000070001000100010D4
:104C300000100010001000E000400040004800504C
:104C400000600050004800440000000000700010A8
:104C500000100010001000100010001000000000F4
:104C60000000000000780054005400540054005428
:104C700000000000000000000058006400440044F0
:104C80000044004400000000000000000038004420
:104C90000044004400440038000000000000000010
:104CA0000058006400440044006400580040004084
:104CB000000000000034004C00440044004C00346C
:104CC00000040004000000000058006400400040A0
:104CD00000400040000000000000000000380044D8
:104CE00000300008004400380000000000200020D0
:104CF00000780020002000200020001800000000A4
:104D0000000000000044004400440044004C003413
:104D100000000000000000000044004400280028BB
:104D200000280010000000000000000000540054A3
:104D30000054006C00280028000000000000000063
:104D4000004400280010001000280044000000006B
:104D5000000000000044004400280028001000105B
:104D60000010006000000000007C0008001000201F
:104D70000040007C0000000000180010001000102F
:104D8000002000200010001000100018001000107B
:104D90000010001000100010001000100010001093
:104DA0000030001000100010000800080010001073
:104DB000001000300000000000000074004C0000F3
:104DC00000000000000000000000000000000000E3
:104DD00000000000000000000000000000000000D3
:104DE0000000000000000000000000000000000CB7
:104DF000000C000C000C000C000C000C000C000C53
:104E0000000C000C0000000C000C00000000000072
:104E10000000001B001B001B001B001B000000000B
:104E20000000000000000000000000000000000082
:104E30000000000000008019801980198019C07FCF
:104E4000C07F80190033C07FC07F00330033003340
:104E500000330000000000000000001E003F8075CD
:104E600080650074003C001E000780058065806539
:104E70008075003F001E0004000400000000007068
:104E800000D840D8C0D880D900730006000C801B21
:104E9000C036C066C046C0068003000000000000A7
:104EA0000000001E003F003300330033001E000CE2
:104EB000C03CC066806380618063C03E801C00008F
:104EC000000000000000000C000C000C000C000CA6
:104ED00000000000000000000000000000000000D2
:104EE0000000000000000000800000010003000638
:104EF00000060004000C000C000C000C000C000C60
:104F000000040006000600030001800000200010DD
:104F10000018000C000C0004000600060006000645
:104F2000000600060004000C000C00180010002011
:104F30000000000C002D003F001E003300000000A8
:104F40000000000000000000000000000000000061
:104F500000000000000000000000000C000C000C2D
:104F6000000CC0FFC0FF000C000C000C000C000087
:104F70000000000000000000000000000000000031
:104F80000000000000000000000000000000000021
:104F90000000000C000C00040004000800000000E9
:104FA0000000000000000000000000000000001EE3
:104FB000001E0000000000000000000000000000D3
:104FC00000000000000000000000000000000000E1
:104FD00000000000000000000000000C000C0000B9
:104FE00000000000000000030003000300060006AC
:104FF00000060006000C000C000C000C0018001845
:1050000000180000000000000000001E003F0033F8
:10501000806180618061806D806D80618061806170
:105020000033003F001E00000000000000000006EA
:10503000000E001E003600260006000600060006D0
:105040000006000600060006000600000000000042
:105050000000001E003F80738061806180010003BA
:105060000006000C001800300060807F807F000088
:10507000000000000000001C003E0063006300030D
:10508000000E000E00038001800180618073003FEC
:10509000001E00000000000000000006000E000ED0
:1050A000001E001E0016003600360066807F807FDE
:1050B0000006000600060000000000000000007F5F
:1050C000007F006000600060006E007F80638001F0
:1050D000800180618073003F001E0000000000001E
:1050E0000000001E003F803380610060006E007F82
:1050F00080738061806180618033003F001E00000A
:10510000000000000000807F807F8001000300031A
:1051100000060006000C000C000C00080018001827
:1051200000180000000000000000001E003F806327
:10513000806180610021001E003F8061806180618C
:105140008061003F001E0000000000000000001E03
:10515000003F00738061806180618073803F801DAB
:10516000800180610073003F001E0000000000000D
:1051700000000000000000000000000C000C000017
:1051800000000000000000000000000C000C000007
:10519000000000000000000000000000000000000F
:1051A000000C000C00000000000000000000000CDB
:1051B000000C0004000400080000000000000000D3
:1051C00080008003000E003800600038000E80036D
:1051D000800000000000000000000000000000004F
:1051E000000000000000807F807F00000000807FC2
:1051F000807F0000000000000000000000000000B0
:10520000000000000000000000400070001C0007CB
:1052100080010007001C007000400000000000003A
:10522000000000000000001F803FC071C060C0008F
:10523000C00180030007000E000C000C0000000CF1
:10524000000C0000000000000000001E003F803144
:1052500080718063806F806D806D806F806700607B
:105260000032003E001C0000000000000000000EA4
:10527000000E001B001B001B001B80318031803F93
:10528000803F8031C060C060C0600000000000004E
:105290000000007C007E0063006300630063007E0A
:1052A000007E0063806180618063007F007E00007B
:1052B000000000000000001E003F8031806100609F
:1052C0000060006000600060006080618031003F2D
:1052D000001E0000000000000000007C007F006352
:1052E0008063806180618061806180618061006332
:1052F0000063007E007C0000000000000000807F52
:10530000807F0060006000600060007F007F0060C0
:10531000006000600060807F807F0000000000006F
:105320000000807F807F0060006000600060007F80
:10533000007F0060006000600060006000600000AE
:10534000000000000000001E003F8031806100600E
:105350000060006080638063806180618031803F95
:10536000001E00000000000000008061806180617C
:10537000806180618061807F807F806180618061E9
:105380008061806180610000000000000000003F3B
:10539000003F000C000C000C000C000C000C000C7A
:1053A000000C000C000C003F003F0000000000005B
:1053B0000000800180018001800180018001800166
:1053C00080018001806180618073003F001E0000C9
:1053D000000000000000C06080610063006600669D
:1053E000006C0078007C006600660063806180616C
:1053F000C06000000000000000000060006000606D
:10540000006000600060006000600060006000609C
:105410000060807F807F0000000000000000C071FD
:10542000C071C07BC07AC06AC06AC06EC064C06010
:10543000C060C060C060C060C060000000000000CC
:10544000000080718071807980798079806D806DB5
:10545000806D8065806780678067806380630000FF
:10546000000000000000001E003F003380618061EA
:105470008061806180618061806180610033003F74
:10548000001E0000000000000000007E007F80631E
:105490008061806180618063007F007E00600060C9
:1054A0000060006000600000000000000000001EBE
:1054B000003F003380618061806180618061806134
:1054C000806580670033803F401E000000000000C0
:1054D0000000007E007F8063806180618063007FC8
:1054E000007E00660063006380618061C060000030
:1054F000000000000000000E001F803180310030ED
:105500000038001E00078003806180618031003F09
:10551000001E0000000000000000C0FFC0FF000CE3
:10552000000C000C000C000C000C000C000C000C1B
:10553000000C000C000C0000000000000000806166
:105540008061806180618061806180618061806153
:10555000806180618073003F001E00000000000039
:105560000000C060C060C060803180318031001BAD
:10557000001B001B001B000E000E000E00040000AC
:10558000000000000000C0C0C0C0C0C0C0C0C0C09B
:10559000C0CC804C804C805E805280528073806191
:1055A00080610000000000000000C0C080608061D9
:1055B0000033003B001E000C000C001E001F003BCF
:1055C00080718061C0C00000000000000000C0C009
:1055D0008061806100330033001E001E000C000C4F
:1055E000000C000C000C000C000C0000000000007F
:1055F0000000803F803F8001000300030006000C94
:10560000000C0018001800300060807F807F0000D0
:1056100000000000000F000F000C000C000C000C3C
:10562000000C000C000C000C000C000C000C000C1A
:10563000000C000C000F000F0000001800180018EC
:10564000000C000C000C000C000600060006000612
:10565000000300030003000000000000001E001E05
:10566000000600060006000600060006000600060A
:10567000000600060006000600060006001E001ECA
:105680000000000C000C001E00120033003380618B
:105690008061000000000000000000000000000029
:1056A00000000000000000000000000000000000FA
:1056B00000000000000000000000000000000000EA
:1056C00000000000E0FF0000000000380018000C9F
:1056D00000000000000000000000000000000000CA
:1056E00000000000000000000000000000000000BA
:1056F000000000000000001F803F80618001801FCB
:10570000803F80618063807FC0380000000000001F
:1057100000000060006000600060006E007F807329
:1057200080618061806180618073007F006E000015
:105730000000000000000000000000000000001E4B
:10574000003F807380610060006080618073003F73
:10575000001E0000000000000000800180018001A8
:105760008001801D803F80738061806180618061E5
:105770008073803F801D00000000000000000000DA
:10578000000000000000001E003F00738061807F69
:10579000807F00608071003F001E0000000000005C
:1057A0000000C007C00F000C000C807F807F000C41
:1057B000000C000C000C000C000C000C000C000095
:1057C000000000000000000000000000801D803F7D
:1057D000807380618061806180618073803F801D03
:1057E00080018063007F003E000000600060006078
:1057F0000060006F807F8071806180618061806166
:1058000080618061806100000000000000000006EF
:10581000000600000000003E003E000600060006F4
:10582000000600060006000600060000000000005A
:105830000006000600000000003E003E00060006D4
:1058400000060006000600060006000600060046E8
:10585000007E003C0000006000600060006080612D
:1058600000630066006C007C00760063006380616A
:10587000C0600000000000000000003E003E000686
:1058800000060006000600060006000600060006E8
:1058900000060006000600000000000000000000F6
:1058A00000000000000080DDC0FFC0CEC0CCC0CC36
:1058B000C0CCC0CCC0CCC0CCC0CC0000000000002C
:1058C00000000000000000000000006F807F807179
:1058D00080618061806180618061806180610000A1
:1058E0000000000000000000000000000000001E9A
:1058F000003F807380618061806180618073003FC0
:10590000001E000000000000000000000000000079
:10591000006E007F80738061806180618061807330
:10592000007F006E0060006000600060000000000A
:1059300000000000801D803F807380618061806175
:1059400080618073803F801D800180018001800123
:10595000000000000000000000000067803F0039E8
:1059600000300030003000300030003000300000E7
:105970000000000000000000000000000000001E09
:10598000803F80610060007F803F80018061007FF8
:10599000001E0000000000000000000000080018C9
:1059A0000018007F007F0018001800180018001869
:1059B0000018801F800F00000000000000000000A1
:1059C0000000000000008061806180618061806172
:1059D000806180618063807F803D00000000000066
:1059E00000000000000000000000C0608031803135
:1059F0008031001B001B001B000E000E0006000083
:105A0000000000000000000000000000000080DD39
:105A100080DD80DD005500550055007700770022BD
:105A20000022000000000000000000000000000054
:105A30000000806100330033001E000C000C001ECB
:105A4000003300338061000000000000000000000F
:105A50000000000080618061803100330033001B52
:105A6000001B001B000E000E000E001C007C0070CE
:105A700000000000000000000000C07FC07F800127
:105A800000030006000C00180030C07FC07F00003B
:105A900000000000800380070006000600060006E4
:105AA0000006000E001C001C000E0006000600068A
:105AB00000060006800780030006000600060006B8
:105AC00000060006000600060006000600060006A6
:105AD0000006000600060006000600060038003C2E
